:100000000C94E0000C9408010C9408010C94080175
:100010000C9408010C9408010C9408010C9408013C
:100020000C9408010C9408010C94A90F0C94531023
:100030000C94620F0C9408010C9408010C940801B4
:100040000C94A10D0C9408010C94110E0C94EB0D62
:100050000C9408010C9408010C9408010C940801FC
:100060000C94430E0C94080100407A10F35A00A03F
:10007000724E18090010A5D4E80000E87648170071
:1000800000E40B54020000CA9A3B000000E1F505B1
:10009000000080969800000040420F000000A086FB
:1000A00001000000102700000000E803000000002D
:1000B0006400000000000A000000000001000000D1
:1000C00000002C76D888DC674F0823DFC1DFAE59EB
:1000D000E1B1B796E5E3E453C63AE651997696E87E
:1000E000E6C28426EB898C9B62ED407C6FFCEFBC02
:1000F0009C9F40F2BAA56FA5F490055A2AF75C932D
:100100006B6CF9676DC11BFCE0E40D47FEF520E662
:10011000B500D0ED902E0300943577050080841E45
:10012000080000204E0A000000C80C333333330FA0
:10013000986E12831141EF8D2114893BE65516CF3D
:10014000FEE6DB18D1844B381BF77C1D901DA4BB49
:10015000E424203284725E228100C9F124ECA1E5FE
:100160003D270000000023002600290000000000B9
:10017000240027002A0000000000250028002B0092
:100180000000000800020100000304070000000056
:100190000000000004040404040404040202020237
:1001A000020203030303030301020408102040803A
:1001B0000102040810200102040810202E11681505
:1001C00011241FBECFEFD8E0DEBFCDBF26E0A4EBE9
:1001D000B2E001C01D92AA3CB207E1F712E0A0E034
:1001E000B1E0E2E8F7E302C005900D92A43BB1074D
:1001F000D9F710E0CFEDD0E004C02197FE010E94B6
:100200004F19CE3DD107C9F70E9463130C94B41B5C
:100210000C94000080E480937C0080917A008064DC
:1002200080937A0080917A0086FDFCCF80917800DF
:1002300090917900089590E0FC01E058FE4F2491E0
:10024000FC01E855FE4F3491FC01EC56FE4FE49161
:10025000EE23C9F0222339F0233001F1A8F4213034
:1002600019F1223029F1F0E0EE0FFF1FEA58FE4F9E
:10027000A591B4918FB7F894EC91611126C0309597
:100280003E233C938FBF08952730A9F02830C9F052
:10029000243049F7809180008F7D03C080918000D9
:1002A0008F7780938000DFCF84B58F7784BDDBCFDD
:1002B00084B58F7DFBCF8091B0008F778093B000A5
:1002C000D2CF8091B0008F7DF9CF3E2BDACFCF9384
:1002D000DF9390E0FC01E855FE4F24918C569E4F31
:1002E000FC0184918823C9F090E0880F991FFC01DC
:1002F000E459FE4FA591B491FC01EA58FE4FC59117
:10030000D49161110DC09FB7F8948C9120958223F0
:100310008C938881282328839FBFDF91CF910895F4
:10032000623051F49FB7F8943C91822F80958323DB
:100330008C93E8812E2BEFCF8FB7F894EC912E2B76
:100340002C938FBFEACFCF93DF93CFE6D0E0188214
:100350001092800081E88093810083E896E090937A
:10036000A6038093A5038BE39CE39093A40380935F
:10037000A30362E088E00E94670161E089E00E94D7
:100380001B0161E089E00E9467011092A2031092B4
:10039000A1031092A00310929F0310929E0310924B
:1003A0009D0380E286BB8883DF91CF9108953FB79C
:1003B000F8948091990390919A03A0919B03B09136
:1003C0009C0326B5A89B05C02F3F19F00196A11DDF
:1003D000B11D3FBFBA2FA92F982F8827BC01CD018F
:1003E000620F711D811D911D42E0660F771F881FEE
:1003F000991F4A95D1F708958F929F92AF92BF921D
:10040000CF92DF92EF92FF924B015C010E94D701E5
:100410006B017C010E94D7016C197D098E099F092F
:10042000683E734081059105A8F321E0821A910886
:10043000A108B10888EEC80E83E0D81EE11CF11CAB
:1004400081149104A104B10429F7FF90EF90DF908B
:10045000CF90BF90AF909F908F900895AF92BF9232
:10046000CF92DF92EF92FF920F931F93CF93DF9380
:100470006C017B018B01040F151FEB015E01AE18AF
:10048000BF08C017D10759F06991D601ED91FC91D1
:100490000190F081E02DC6010995892B79F7C501FE
:1004A000DF91CF911F910F91FF90EF90DF90CF9050
:1004B000BF90AF900895FC01538D448D252F30E0FF
:1004C000842F90E0821B930B541710F0CF96089561
:1004D00001970895FC01918D828D981761F0A28D8E
:1004E000AE0FBF2FB11D5D968C91928D9F5F9F7354
:1004F000928F90E008958FEF9FEF0895FC01918D0A
:10050000828D981731F0828DE80FF11D858D90E076
:1005100008958FEF9FEF0895FC01918D228D892F13
:1005200090E0805C9F4F821B91098F7399270895FB
:1005300087E194E00E948C0221E0892B09F420E0FD
:10054000822F089580E090E0892B29F00E94980284
:1005500081110C9400000895FC01A48DA80FB92FFF
:10056000B11DA35ABF4F2C91848D90E001968F73DB
:100570009927848FA689B7892C93A089B1898C91FA
:10058000837080648C93938D848D981306C0028849
:10059000F389E02D80818F7D80830895EF92FF9213
:1005A0000F931F93CF93DF93EC0181E0888F9B8D96
:1005B0008C8D98131AC0E889F989808185FF15C050
:1005C0009FB7F894EE89FF896083E889F989808173
:1005D0008370806480839FBF81E090E0DF91CF9142
:1005E0001F910F91FF90EF900895F62E0B8D10E064
:1005F0000F5F1F4F0F731127E02E8C8D8E110CC0D3
:100600000FB607FCFACFE889F989808185FFF5CF1D
:10061000CE010E94AC02F1CFEB8DEC0FFD2FF11D4E
:10062000E35AFF4FF0829FB7F8940B8FEA89FB895A
:1006300080818062CFCFCF93DF93EC01888D8823B8
:10064000B9F0AA89BB89E889F9898C9185FD03C035
:10065000808186FD0DC00FB607FCF7CF8C9185FF1A
:10066000F2CF808185FFEDCFCE010E94AC02E9CFB1
:10067000DF91CF91089520917103260F3327331F07
:1006800021323105ECF420911104FC0190E080E06E
:10069000243069F082E00895A09171032191AC01AA
:1006A000415B5C4FA40FB52FB11D2C9301968617AB
:1006B00098F380917103680F6093710380E008954F
:1006C00081E008951092110481E08093F00310926C
:1006D000EB0361E082E10E941B0161E083E10E9483
:1006E0001B01E9EBF0E080818E7F808380818D7F2C
:1006F000808388E48093B80085E48093BC000895EB
:10070000CF93DF9391E090934E038823B9F0C0918B
:10071000B800D091BA008091BC008A7B8093BC0065
:1007200060E082E10E941B0160E083E10E941B0106
:100730000E946203D093BA00C093B800DF91CF91BA
:100740000895CF92DF92EF92FF920F931F93CF9372
:10075000DF93D82FC62F613208F098C00E94D701CE
:100760006B017C018091110481116BC081E0809349
:1007700011048093F0039FEF9093EF031092EE0328
:100780009C0F9093ED038093EC038091EC03DD0FBD
:10079000D82BD093EC038091EB03813009F078C023
:1007A0001092EB030E94D7016B017C018091EC0356
:1007B0008093BB008091130490911404A0911504C0
:1007C000B0911604892B8A2B8B2BA1F00E94D701A4
:1007D0000091130410911404209115043091160413
:1007E0006C197D098E099F09061717072807390715
:1007F00008F448C08091BC0083FDD8CF85EC80937D
:10080000BC000E94D7016B017C01809111048130F2
:1008100009F440C08091EE038C1710F4C091EE03F0
:10082000EBECF3E0A1EFB3E080E08C1355C08C2F2C
:10083000DF91CF911F910F91FF90EF90DF90CF90BC
:1008400008958091130490911404A0911504B0911F
:100850001604892B8A2B8B2B09F484CF0E94D70195
:100860000091130410911404209115043091160482
:100870006C197D098E099F09061717072807390784
:1008800008F070CF809112040E948003C0E0CFCFA7
:1008900085EEB5CF8091130490911404A0911504B6
:1008A000B0911604892B8A2B8B2B09F4AECF0E94B2
:1008B000D701009113041091140420911504309174
:1008C00016046C197D098E099F090617170728075A
:1008D000390708F09ACFD6CF91919D938F5FA5CF1E
:1008E0008F929F92AF92BF92CF92DF92EF92FF9240
:1008F0000F931F93CF93DF93D091CA03D13208F0A7
:10090000D7C0182FC091C9030E94D7016B017C0189
:100910008091110481116BC082E0809311041093C7
:10092000F0038FEF8093EF031092EE03D093ED036B
:10093000A9EAB3E0EBECF3E080E0D81391C01092A9
:10094000EC038091EC03CC0FC82BC093EC03809197
:10095000EB03813009F088C01092EB030E94D701AD
:100960006B017C018091EC038093BB0080911304A8
:1009700090911404A0911504B0911604892B8A2B30
:100980008B2BA1F00E94D701009113041091140445
:1009900020911504309116046C197D098E099F0968
:1009A000061717072807390708F442C08091BC00D2
:1009B00083FDD8CF85EC8093BC000E94D7016B01EA
:1009C0007C0180911104823009F450C08091EF03C2
:1009D0008F3F09F46FC08091EF03803209F46CC03F
:1009E0008091EF03803309F469C084E026C08091D0
:1009F000130490911404A0911504B0911604892B4E
:100A00008A2B8B2B09F484CF0E94D701809013048A
:100A100090901404A0901504B09016046C197D09F0
:100A20008E099F0986169706A806B90608F070CFAA
:100A3000809112040E94800385E01092A803109216
:100A4000CA031092A703DF91CF911F910F91FF90DE
:100A5000EF90DF90CF90BF90AF909F908F900895D0
:100A60009D9191938F5F69CF85EEA5CF80911304FF
:100A700090911404A0911504B0911604892B8A2B2F
:100A80008B2B09F49ECF0E94D70100911304109183
:100A9000140420911504309116046C197D098E09F7
:100AA0009F09061717072807390708F08ACFC0CF14
:100AB00081E0C3CF80E0C1CF82E0BFCF83E0BDCF74
:100AC000089508950895E091970380919603E8179B
:100AD00030F4F0E0EF50FC4F808190E008958FEF0C
:100AE0009FEF089590919703809196032FEF3FEF2A
:100AF000981748F4E92FF0E0EF50FC4F208130E0E8
:100B00009F5F90939703C9010895809196039091F8
:100B10009703891B990B0895CF92DF92EF92FF9272
:100B20000F931F93CF93DF937C01CB018A01209118
:100B3000A703222389F0EB016B01C40ED51ECC154F
:100B4000DD0569F06991D701ED91FC910190F0818B
:100B5000E02DC7010995F3CF642F0E943B03C80124
:100B6000DF91CF911F910F91FF90EF90DF90CF9089
:100B70000895CF93DF931F92CDB7DEB7698320919D
:100B8000A7032223F9F02091CA03203258F021E074
:100B900030E0FC013383228390E080E00F90DF910E
:100BA000CF9108958091A803E82FF0E0E755FC4F1E
:100BB000998190838F5F8093A8038093CA0381E01B
:100BC00090E0ECCF61E0CE0101960E943B03F7CFAD
:100BD0008091A0038093A10308955091A1034091B7
:100BE000A003852F90E0242F30E0541718F0821BCB
:100BF000930B0895805B9F4FFACF8091A103E09102
:100C0000A0038E1751F0EF5FE03508F0E0E0F0E070
:100C1000E250FD4F808190E008958FEF9FEF08959F
:100C20008091A1039091A003891769F09F5F90358F
:100C300008F090E0E92FF0E0E250FD4F80819093C2
:100C4000A00390E008958FEF9FEF089580919F0398
:100C50008111FCCF089590919E039F5F943408F01A
:100C600090E020919D032917E1F32FB7F89430917C
:100C70009F03332349F0E92FF0E0EC54FD4F8083CC
:100C800090939E032FBF089591E090939F038093CC
:100C9000F9021092F80282E086BB80916F008260B8
:100CA00080936F00809180008F7B806880938000AC
:100CB0008091840090918500409690938900809364
:100CC0008800E0CFCF93DF93CFE6D0E088818B7FA1
:100CD000888388818F7D88830E94E8050E9426068C
:100CE00088818D7F8883DF91CF910895CF92DF92A5
:100CF000EF92FF92CF93DF93DC011796CC91179779
:100D0000D0E06111DC2F18962C91189730E0220F5B
:100D1000331F2E593E4F50E040E0F90185919491E8
:100D2000FC01F080BA0190E080E0EF2DEC23ED13A0
:100D300010C04F5F5F4F1D96CD90DD90ED90FC9001
:100D400050976C157D058E059F0538F36FEF7FEF8B
:100D5000CB01DF91CF91FF90EF90DF90CF9008957E
:100D60008F929F92AF92BF92CF92DF92EF92FF92BB
:100D70000F931F93CF93DF93CDB7DEB7C054D1400D
:100D80000FB6F894DEBF0FBECDBF2FB7F8944091D9
:100D9000B4045091B5046091B6047091B7042FBFAC
:100DA000FC0101851285238534856A017B01C01A07
:100DB000D10AE20AF30A97018601003D1740210596
:100DC0003105B0F4FC018189C05CDE4F0FB6F894A8
:100DD000DEBF0FBECDBFDF91CF911F910F91FF906E
:100DE000EF90DF90CF90BF90AF909F908F9008953D
:100DF0008C01FC01418752876387748714821382B8
:100E000012821182108262E085810E94670161E096
:100E100070E080E090E00E94FC0161E0F8018581D3
:100E20000E94670160E0F80185810E941B01F801C2
:100E300086818551823028F58BE291E10197F1F7A7
:100E400062E0F80185810E946701F801828990E0E3
:100E50008230910538F0880F991F880F991F0597E8
:100E60000197F1F7F89460E0C8010E9476066F3FA1
:100E70007F4F8F4F9F4F61F4F801118A789480E083
:100E8000A3CF64E170E080E090E00E94FC01D8CF45
:100E900061E0C8010E9476066F3F7F4F8F4F9F4FE2
:100EA00059F3CE0101967C015E019FEBA91A9EEFDA
:100EB000B90A670160E0C8010E947606F601608306
:100EC00071838283938361E0C8010E947606F601F4
:100ED0006483758386839783F8E0CF0ED11CCA1490
:100EE000DB0441F7789430E020E0F70180809180C6
:100EF000A280B3804481558166817781FFEF8F1690
:100F00009F06AF06BF0631F04F3F8FEF58076807C7
:100F1000780719F4F801118AB2CFF90183E0F59549
:100F2000E7958A95E1F7E00FF11F8081880F84161D
:100F30009506A606B706F0F080832F5F3F4FF8E0D6
:100F4000EF0EF11C2832310581F6F8014481208131
:100F50008181280F3327331F8281280F311D838120
:100F6000820F932F911D99274817190699F681E052
:100F7000818B2ACF8160E0CFCF92DF92EF92FF92F8
:100F80000F931F93CF93DF93EC010E94A3010E9464
:100F9000E80561E08BE00E941B0161E070E080E009
:100FA00090E00E94FC0106E211E0F80181918F01BE
:100FB0000E942B06F1E00E321F07B9F76E0186E1A1
:100FC000C80ED11C0E94260660E08BE00E941B0127
:100FD00064EF71E080E090E00E94FC018E010E5D04
:100FE0001F4F7E01E0E3EE0EF11CC6010E941006C9
:100FF000F801819391938F01EE15FF05B1F780E021
:1010000098A52AA53BA5820F931F6AE070E00E9475
:101010002719072E000C880B990B0E94F717DF91F8
:10102000CF911F910F91FF90EF90DF90CF90089597
:10103000CF92DF92EF92FF920F931F93CF93DF93A4
:10104000EC010E94A3010E94E80561E08BE00E9490
:101050001B0161E070E080E090E00E94FC010EE185
:1010600011E0F80181918F010E942B06F1E0063218
:101070001F07B9F76E0186E1C80ED11C0E94260633
:1010800060E08BE00E941B0164EF71E080E090E083
:101090000E94FC018E010E5D1F4F7E01E0E3EE0E0B
:1010A000F11CC6010E941006F801819391938F01F3
:1010B000EE15FF05B1F780E098A52AA53BA5820FA4
:1010C000931F6AE070E00E942719072E000C880B1E
:1010D000990B0E94F717DF91CF911F910F91FF900D
:1010E000EF90DF90CF900895CF92DF92EF92FF9232
:1010F0000F931F93CF93DF93EC010E94A3010E94F3
:10110000E80561E08BE00E941B0161E070E080E097
:1011100090E00E94FC0106E111E0F80181918F014D
:101120000E942B06F1E00E311F07B9F76E0186E130
:10113000C80ED11C0E94260660E08BE00E941B01B5
:1011400064EF71E080E090E00E94FC018E010E5D92
:101150001F4F7E01E0E3EE0EF11CC6010E94100657
:10116000F801819391938F01EE15FF05B1F780E0AF
:1011700098A52AA53BA5820F931F6AE070E00E9404
:101180002719072E000C880B990B0E94F717DF9187
:10119000CF911F910F91FF90EF90DF90CF90089526
:1011A000CF92DF92EF92FF920F931F93CF93DF9333
:1011B000EC010E94A3010E94E80561E08BE00E941F
:1011C0001B0161E070E080E090E00E94FC010EE015
:1011D00011E0F80181918F010E942B06F1E00631A8
:1011E0001F07B9F76E0186E1C80ED11C0E942606C2
:1011F00060E08BE00E941B0164EF71E080E090E012
:101200000E94FC018E010E5D1F4F7E01E0E3EE0E99
:10121000F11CC6010E941006F801819391938F0181
:10122000EE15FF05B1F780E098A52AA53BA5820F32
:10123000931F6AE070E00E942719072E000C880BAC
:10124000990B0E94F717DF91CF911F910F91FF909B
:10125000EF90DF90CF900895CF92DF92EF92FF92C0
:101260000F931F93CF93DF93EC010E94A3010E9481
:10127000E80561E08BE00E941B0161E070E080E026
:1012800090E00E94FC0106E011E0F80181918F01DD
:101290000E942B06F1E00E301F07B9F76E0186E1C0
:1012A000C80ED11C0E94260660E08BE00E941B0144
:1012B00064EF71E080E090E00E94FC018E010E5D21
:1012C0001F4F7E01E0E3EE0EF11CC6010E941006E6
:1012D000F801819391938F01EE15FF05B1F780E03E
:1012E00098A52AA53BA5820F931F6AE070E00E9493
:1012F0002719072E000C880B990B0E94F717DF9116
:10130000CF911F910F91FF90EF90DF90CF900895B4
:101310000C942606862F0E942B0681E090E008950B
:10132000CF92DF92EF92FF92CF9380EA96E00E94F5
:10133000B006882341F08091A6068C3009F44FC096
:1013400038F48B30F1F060E070E080EC9FE741C052
:1013500085518230C0F7C091A2066C2F70E0762FC5
:10136000662766277F778091A306682B90E080E050
:101370000E94F5172DEC3CEC4CEC5DE30E9432181A
:101380004AC06091A20670E090E080E00E94F517EC
:101390006B017C01C091A306C7FF0AC0AC019B0191
:1013A00060E070E080E89FEB0E9455196B017C01C2
:1013B000CF706C2F70E090E080E00E94F7172DEC6A
:1013C0003CEC4CEC5DE30E943218A70196010E94B0
:1013D0005619CF91FF90EF90DF90CF900895C09174
:1013E000A2066C2F70E090E080E00E94F5176B0180
:1013F0007C016091A3066F7070E090E080E00E9435
:10140000F7172DEC3CEC4CEC5DE30E943218A70181
:1014100096010E945619C7FFDCCF9058DACFCF92C1
:10142000DF92EF92FF9283EB96E00E94B006882352
:1014300049F08091B9068B3028F08D3040F085510D
:10144000823030F160E070E080EC9FE71CC060917A
:10145000B40670E090E080E00E94F7172DEC3CECC1
:101460004CEC5DE30E9432186B017C016091B30685
:1014700070E090E080E00E94F7179B01AC01C7018B
:10148000B6010E945619FF90EF90DF90CF9008951B
:101490006091B3067091B40676276727762790E0AF
:1014A00080E00E94F5172DEC3CEC4CEC5DE30E94D3
:1014B0003218E9CF0E940A01BC01990F880B990BE1
:1014C0000E94F7170895CF92DF92EF92FF92CF9389
:1014D000DF936A017B01E901688970E090E080E0B8
:1014E0000E94F717A70196010E9432186B017C0138
:1014F000698970E090E080E00E94F7179B01AC01E1
:10150000C701B6010E945619DF91CF91FF90EF906D
:10151000DF90CF90089590E080E008958F929F92A1
:10152000AF92BF92CF92DF92EF92FF921F93CF9331
:10153000DF93EC0189819A81288131E03093A70300
:101540002093C9031092A8031092CA03DC01ED9105
:10155000FC910190F081E02D099581E00E947004DA
:101560001AE0882371F086EE93E0DF91CF911F910E
:10157000FF90EF90DF90CF90BF90AF909F908F90B3
:1015800008956AE070E080E090E00E94FC0163E072
:1015900088810E94A10310929703809396031150B3
:1015A00011F3833071F789819A81DC01ED91FC910F
:1015B0000284F385E02D0995F82E89819A81DC015A
:1015C000ED91FC910284F385E02D0995182F898116
:1015D0009A81DC01ED91FC910284F385E02D09955F
:1015E00020E03F2D212BA90170E060E0762F652FD0
:1015F000542F4427482B87E190E0C12CE0E8DE2EF1
:10160000E8E9EE2EF12C4A015B01082E04C0B694E5
:10161000A794979487940A94D2F780FE04C04C252F
:101620005D256E257F25F694E794D794C79401979E
:101630008730910541F7C9018C7F442309F495CF88
:1016400087EE93E092CFFB0101900020E9F73197FC
:10165000AF01461B570B0C942E02CF93DF93FC0176
:10166000448155816081718187E194E00E942E025E
:10167000EC0160EA71E087E194E00E94230B8C0F9B
:101680009D1FDF91CF910895CF93DF93EB01BC01B4
:1016900087E194E00E94230B63EA71E0CD2B11F403
:1016A00067EA71E087E194E00E94230B60EA71E051
:1016B00087E194E0DF91CF910C94230BCF93DF93DC
:1016C000EC0189819A81288131E03093A70320932E
:1016D000C9031092A8031092CA03DC01ED91FC919A
:1016E0000190F081E02D67EE099581E00E94700481
:1016F00061E088810E94A103109297038093960372
:1017000089819A81DC01ED91FC910284F385E02DC1
:101710000995C82F682F607470E08AEA91E00E94F2
:10172000440B6C2F647070E08BEB91E00E94440BD3
:10173000C2706C2F70E08CEC91E0DF91CF910C9433
:10174000440BFC018185811120C0109297031092F7
:1017500096031092A8031092CA030E94620380E6C7
:1017600095E09093700380936F0381E695E09093EA
:1017700074038093730364E670E080E090E00E945D
:10178000FC018EE896E00E945E0B63EF8EE896E027
:101790000E948E0A9C01265E3340BC0190E080E0EE
:1017A0002230310518F40E94F51708950E94F517AC
:1017B00022E538EB4FE25BE30E94321826E636E67C
:1017C0004BE352E40E9455190895FC018185811173
:1017D00020C010929703109296031092A8031092C3
:1017E000CA030E94620380E695E0909370038093A1
:1017F0006F0381E695E0909374038093730364E62E
:1018000070E080E090E00E94FC018DE996E00E948B
:101810005E0B65EF8DE996E00E948E0A9C01265EC4
:101820003340BC0190E080E02230310518F40E9482
:10183000F51708950E94F51720E030E04AEF5AE3CB
:101840000E94321820E030E040EC50E40E9455192C
:1018500008950F931F93CF93DF93EC0188819981B3
:10186000009759F02A813B812617370730F081E035
:10187000DF91CF911F910F9108958B016F5F7F4F83
:101880000E94E71A009759F0998388831B830A8383
:101890002C813D81232B59F7FC011082E8CF80E099
:1018A000E7CFCF93DF93EC0188819981009711F006
:1018B0000E945E1A198218821D821C821B821A8263
:1018C000DF91CF910895EF92FF920F931F93CF93E3
:1018D000DF93EC017B01198218821B821A821D8220
:1018E0001C82FB0101900020E9F731978F01061B54
:1018F000170BB8010E94290C811109C0CE01DF919C
:10190000CF911F910F91FF90EF900C94510C1D837C
:101910000C83B70188819981DF91CF911F910F913D
:10192000FF90EF900C94AD1BCF92DF92EF92FF925D
:101930000F931F93CF93DF93CDB7DEB7A1970FB669
:10194000F894DEBF0FBECDBF7C01CB01BA01F70119
:101950001182108213821282158214828E010F5F0F
:101960001F4F22E044E00E94A0156C01009771F027
:10197000FC0101900020E9F731978F01081B190B3A
:10198000B801C7010E94290C811112C0C7010E9431
:10199000510CA1960FB6F894DEBF0FBECDBFDF91FC
:1019A000CF911F910F91FF90EF90DF90CF9008950E
:1019B000F70115830483B601808191810E94AD1BDC
:1019C000E8CFEF92FF920F931F93CF93DF93EC0139
:1019D000FB01E080F180E114F10411F10481158133
:1019E00001151105A9F08C819D81080F191FB801FF
:1019F000CE010E94290C882399F0288139818C819D
:101A00009D81B701820F931F0E94AD1B1D830C8324
:101A1000CE01DF91CF911F910F91FF90EF9008952C
:101A2000CE010E94510CF4CFFC018081918100977E
:101A300011F00C945E1A089585ED8093BC0080919E
:101A4000130490911404A0911504B0911604079604
:101A5000A11DB11D23E0B695A795979587952A9569
:101A6000D1F72091BC0024FD03C010921104089509
:101A70004091130450911404609115047091160460
:101A8000452B462B472B69F30097A105B10541F083
:101A900025E32A95F1F700000197A109B109E1CFEB
:101AA000809112040C9480030F931F9361E086E0F1
:101AB0000E94670160E086E00E941B0183E090E0E5
:101AC0000197F1F761E086E00E941B0183E290E05C
:101AD0000197F1F760E086E00E941B0160E085E07D
:101AE0000E946701EDEAF1E06491E9E9F1E0E49137
:101AF000F0E0EE0FFF1FEE59FE4F8591949100E448
:101B000012E42FE030E0462F0E94E91061157105C4
:101B10008105910529F06F5F7F4F8F4F9F4F9F7019
:101B20000E94F51726E933E44BE05DE30E9432188A
:101B300020E030E040E05FE30E9432181F910F91F7
:101B400008951F920F920FB60F9211242F933F9377
:101B50008F939F93AF93BF938091B4049091B504FA
:101B6000A091B604B091B7043091980323E0230FFD
:101B70002D3758F50196A11DB11D20939803809330
:101B8000B4049093B504A093B604B093B7048091C5
:101B9000990390919A03A0919B03B0919C030196A5
:101BA000A11DB11D8093990390939A03A0939B0369
:101BB000B0939C03BF91AF919F918F913F912F91D3
:101BC0000F900FBE0F901F90189526E8230F0296D6
:101BD000A11DB11DD2CF1F920F920FB60F921124EB
:101BE0002F933F934F935F936F937F938F939F9325
:101BF000AF93BF93EF93FF9387E194E00E94AC0211
:101C0000FF91EF91BF91AF919F918F917F916F91D4
:101C10005F914F913F912F910F900FBE0F901F90AA
:101C200018951F920F920FB60F9211242F938F9336
:101C30009F93EF93FF93E0912704F0912804808114
:101C4000E0912D04F0912E0482FD1BC090818091C3
:101C500030048F5F8F7320913104821741F0E0913F
:101C60003004F0E0E95EFB4F958F80933004FF91E4
:101C7000EF919F918F912F910F900FBE0F901F901A
:101C800018958081F4CF1F920F920FB60F921124F6
:101C90002F933F934F935F936F937F938F939F9374
:101CA000AF93BF93EF93FF938091B900887F803605
:101CB00009F44AC0F0F5883209F4A7C018F580315C
:101CC00009F49BC0B8F4882309F4F9C0883009F4FA
:101CD00094C0FF91EF91BF91AF919F918F917F91B0
:101CE0006F915F914F913F912F910F900FBE0F9089
:101CF0001F901895883109F488C0803251F780937D
:101D0000EF0314C0803409F49DC040F48033B9F36C
:101D10008833F9F68093EF0385ECB0C0803509F481
:101D200085C0883509F496C0883499F60E941C0D48
:101D3000D0CF883909F48CC038F5883729F050F4B1
:101D4000883611F0803729F683E0809311041092D1
:101D5000950357C0883809F47BC0803919F0803862
:101D600009F0B7CF80919503803208F071C0E091FF
:101D7000950381E08E0F809395038091BB00F0E086
:101D8000EB58FC4F80833DC0803B39F0E0F4803A53
:101D900009F479C0883A09F09CCF84E0809311045B
:101DA0001092720310927103E0916F03F09170032F
:101DB00009958091710381110FC081E080937103B7
:101DC00010924F0309C0803C09F4A6CF883C09F467
:101DD000A3CF883B09F07DCFE091720381E08E0FA5
:101DE00080937203F0E0E15BFC4F80818093BB0045
:101DF000909172038091710329C08091EC038093CC
:101E0000BB0085EC8093BC0064CF9091EE03809181
:101E1000ED03981758F5E091EE0381E08E0F809363
:101E2000EE03F0E0E553FC4F8081E9CFE091EE0353
:101E300081E08E0F8093EE038091BB00F0E0E553CC
:101E4000FC4F80839091EE038091ED039817C8F2C8
:101E500085E8D8CFE091EE0381E08E0F8093EE030A
:101E60008091BB00F0E0E553FC4F80838091F0034C
:101E700081115CCF81E08093EB0384EA8093BC0006
:101E80001092110426CF85EC8093BC0010921104AF
:101E900080919503803230F4E0919503F0E0EB58A7
:101EA000FC4F10826091950370E0E0917303F09114
:101EB000740385E793E00995109295030ACF109279
:101EC000EF0334CF1F920F920FB60F9211242F936E
:101ED0008F939F93EF93FF9380916F008B7F8093FD
:101EE0006F00809181008F7B809381008091A2039D
:101EF0002091FD0220589091FC02893020F49695A3
:101F0000922B8F5FFACF9093FC028091A1038F5F99
:101F1000803508F080E02091A003281739F0E82FE1
:101F2000F0E0E250FD4F90838093A1031092A20352
:101F3000809181008F7B809381001092FD02FF9140
:101F4000EF919F918F912F910F900FBE0F901F9047
:101F500018951F920F920FB60F9211242F933F9353
:101F60004F935F936F937F938F939F93AF93BF93A1
:101F7000EF93FF9380918600909187004091FD023E
:101F8000209181004423F1F12F7B20938100109256
:101F9000FD023091A20331113CC0411122C02091B9
:101FA000A3033091A403280F391F30938B00209393
:101FB0008A0024E026BB20916F00246020936F00EC
:101FC0002091A5033091A603820F931F3695279584
:101FD000280F391F3093FB022093FA0281E080938F
:101FE000A203FF91EF91BF91AF919F918F917F914C
:101FF0006F915F914F913F912F910F900FBE0F9076
:102000001F90189520642093810020E82093FD0202
:10201000C0CF4091FA025091FB026091A5037091EC
:10202000A603DB01A095B0952091FC02E091FD0292
:10203000841B950BA817B90768F126952E2B460F20
:10204000571F3F5F861B970B3930A0F32093FC028C
:1020500080916F008B7F80936F008091A1038F5FD1
:10206000803508F080E09091A003981749F0E82FA0
:10207000F0E09091FC02E250FD4F90838093A10329
:10208000809181008F7B809381001092FD021092DD
:10209000A203A7CF2093FC025093FB024093FA02C5
:1020A0003093A2039ECF1F920F920FB60F9211246E
:1020B0002F933F934F935F936F937F938F939F9350
:1020C000EF93FF9320919F036091F9028091880024
:1020D000909189004091A5035091A6033091F80298
:1020E0002A3070F5840F951F762F7170293009F40E
:1020F00071E066952F5F371799F330918000772351
:10210000E1F0306C309380009093890080938800D8
:102110007093F8026093F90220939F03FF91EF916F
:102120009F918F917F916F915F914F913F912F91EF
:102130000F900FBE0F901F9018953F7B3068E2CF35
:1021400030919E03E0919D033E1319C02A3051F453
:102150002BE020939F03840F951F90938900809319
:102160008800DCCF10929F03809180008F73809352
:10217000800080916F008D7F80936F00CFCFEF5FE5
:10218000E43408F0E0E0E0939D03F0E0EC54FD4F10
:1021900030813093F9021092F802309180003F7B39
:1021A0003068309380002A3071F42091A50330917B
:1021B000A603820F931F909389008093880081E08B
:1021C00080939F03ABCF80918400909185004096CF
:1021D000F2CFCF92DF92EF92FF920F931F93E82FEF
:1021E000F92F05C0015011092109310961F19081D0
:1021F00096239417B9F305C001501109210931093B
:1022000011F1908196239413F7CFC12CD12CE12C9E
:10221000F12C0AC08FEFC81AD80AE80AF80A0C1580
:102220001D052E053F0579F080818623841791F3E3
:102230006C2D7D2D8E2D9F2D1F910F91FF90EF9076
:10224000DF90CF90089560E070E080E090E01F9113
:102250000F91FF90EF90DF90CF9008957F928F9233
:102260009F92AF92BF92CF92DF92EF92FF920F9325
:102270001F93CF93DF93E7E1F4E01382128288EE9D
:10228000882E83E0982EA12CB12C84829582A68280
:10229000B78282E391E09183808385EC90E095871B
:1022A000848784EC90E09787868780EC90E0918B20
:1022B000808B81EC90E0938B828B82EC90E0958B0D
:1022C000848B86EC90E0978B868B118E128E138E0A
:1022D000148EA1E9B6E013961C921E9212971496E2
:1022E0008D929D92AD92BC92179784E491E01196E5
:1022F0009C938E9393EBC92E96E0D92ED4E0F601F1
:10230000D583CBE0C6832CEA31E0F9018491F60154
:10231000878388E991E0FC014491F601408740E819
:102320005EE360E070E0458756876787708BE0EA80
:10233000EE2EE6E0FE2EF701D583C683F901249147
:10234000F7012783FC018491F70180874587568731
:102350006787708BEDE9F6E080E48083B283A18328
:10236000EEE8F6E08083B283A183E8E7F6E0148626
:10237000158616861786128213821482158284E6C9
:1023800090E090878783CAE0C18713861286808B8E
:10239000118A138A128A8FE097E2958B848BD1E0A1
:1023A000D6838EE991E091838083E2E6F6E014869D
:1023B000158616861786128213821482158208EEFD
:1023C00013E010870783C18713861286C08B118A9A
:1023D000138A128A158B048BD6838CE591E0918346
:1023E000808362E084E00E9467012FB7F8948091B7
:1023F000B4049091B504A091B604B091B7042FBF76
:10240000805D9740A109B109F60181879287A38772
:10241000B487A7E37A2E728AECE4F6E01486158678
:1024200016861786128213821482158210870783FC
:10243000C18713861286C08BB8ECDB2ED18A138A33
:10244000128A158B048BD68386E591E09183808375
:1024500062E0F70185810E9467012FB7F8948091AF
:10246000B4049091B504A091B604B091B7042FBF05
:10247000805D9740A109B109F70181879287A38701
:10248000B487728AE6E3F6E0148615861686178608
:10249000128213821482158210870783C1871386E4
:1024A0001286C08B118A138A128A158B048BD683ED
:1024B00088E991E091838083E0E2F6E01486158656
:1024C000168617861282138214821582108707835C
:1024D000C18713861286C08BD18A138A128A158B04
:1024E000048BD68382E991E091838083E8EDF5E067
:1024F0001486158616861786128213821482158218
:1025000010870783C18713861286C08B118A138AAE
:10251000128A158B048BD68382E691E091838083A7
:10252000118E108E828E938EA48EB58E8AE7E82E41
:1025300081E0F82EF78AE68A0E94A30161E08BE031
:102540000E94670160E08BE00E941B01E0E9F5E07A
:1025500014861586168617861282138214821582B7
:1025600010870783C18713861286C08B118A138A4E
:10257000128A158B048BD68388E691E09183808341
:10258000118E108E828E938EA48EB58EF78AE68A77
:102590000E94A30161E08BE00E94670160E08BE094
:1025A0000E941B01E8E4F5E014861586168617865E
:1025B000128213821482158210870783C1871386C3
:1025C0001286C08B118A138A128A158B048BD683CC
:1025D0008EE691E091838083118E108E828E938E91
:1025E000A48EB58EF78AE68A0E94A30161E08BE093
:1025F0000E94670160E08BE00E941B01E0E0F5E0D3
:102600001486158616861786128213821482158206
:1026100010870783C18713861286C08B118A138A9D
:10262000128A158B048BD68384E791E09183808393
:10263000118E108E828E938EA48EB58EF78AE68AC6
:102640000E94A30161E08BE00E94670160E08BE0E3
:102650000E941B01E8EBF4E01486158616861786A7
:10266000128213821482158210870783C187138612
:102670001286C08B118A138A128A158B048BD6831B
:102680008CE891E091838083118E108E828E938EE0
:10269000A48EB58EF78AE68A0E94A30161E08BE0E2
:1026A0000E94670160E08BE0DF91CF911F910F9155
:1026B000FF90EF90DF90CF90BF90AF909F908F9062
:1026C0007F900C941B01CF93DF93CDB7DEB72C978F
:1026D0000FB6F894DEBF0FBECDBF789484B582608C
:1026E00084BD84B5816084BD85B5826085BD85B5B6
:1026F000816085BD80916E00816080936E00109234
:1027000081008091810082608093810080918100AE
:10271000816080938100809180008160809380003F
:102720008091B10084608093B1008091B00081609D
:102730008093B00080917A00846080937A008091C9
:102740007A00826080937A0080917A008160809321
:102750007A0080917A00806880937A001092C1009C
:10276000E0912704F091280482E08083E091230423
:10277000F09124041082E0912504F091260480E178
:10278000808310922F04E0912B04F0912C0486E0BA
:102790008083E0912904F0912A0480818061808304
:1027A000E0912904F0912A04808188608083E0917F
:1027B0002904F0912A04808180688083E0912904B3
:1027C000F0912A0480818F7D808300E010E088E70B
:1027D00096E00E94540DAB01BC01CE0101960E940F
:1027E000940C61EE71E0CE0107960E94630CBE016D
:1027F0006F5F7F4FCE0107960E94E10C0E942D0B68
:10280000CE0107960E94140DCE0101960E94140D70
:102810000E940A01BC01990F880B990B0E94F717BF
:10282000AB01BC01CE0101960E94940C62EF71E0F5
:10283000CE0107960E94630CBE016F5F7F4FCE01F1
:1028400007960E94E10C0E942D0BCE0107960E9474
:10285000140DCE0101960E94140D82E696E00E94AE
:102860000F0AAB01BC01CE0101960E94940C6FEFE0
:1028700071E0CE0107960E94630CBE016F5F7F4F2F
:10288000CE0107960E94E10C0E942D0BCE01079607
:102890000E94140DCE0101960E94140D8CE496E066
:1028A0000E949009AB01BC01CE0101960E94940CDC
:1028B00064E172E0CE0107960E94630CBE016F5F77
:1028C0007F4FCE0107960E94E10C0E942D0BCE0196
:1028D00007960E94140DCE0101960E94140D86E306
:1028E00096E00E94E50BAB01BC01CE0101960E946F
:1028F000940C6CE272E0CE0107960E94630CBE015C
:102900006F5F7F4FCE0107960E94E10C0E942D0B56
:10291000CE0107960E94140DCE0101960E94140D5F
:1029200080E296E00E94A10BAB01BC01CE010196B2
:102930000E94940C63E472E0CE0107960E94630C3F
:10294000BE016F5F7F4FCE0107960E94E10C0E948F
:102950002D0BCE0107960E94140DCE0101960E9408
:10296000140D80E995E00E942C09AB01BC01CE0159
:1029700001960E94940C6DE572E0CE0107960E94CC
:10298000630CBE016F5F7F4FCE0107960E94E10C82
:102990000E942D0BCE0107960E94140DCE010196C8
:1029A0000E94140D88ED95E00E94D008AB01BC0197
:1029B000CE0101960E94940C6BE672E0CE01079660
:1029C0000E94630CBE016F5F7F4FCE0107960E948D
:1029D000E10C0E942D0BCE0107960E94140DCE0132
:1029E00001960E94140D88E495E00E947408AB01E2
:1029F000BC01CE0101960E94940C69E772E0CE0101
:102A000007960E94630CBE016F5F7F4FCE01079651
:102A10000E94E10C0E942D0BCE0107960E94140D1E
:102A2000CE0101960E94140D88EB94E00E94BC0731
:102A3000AB01BC01CE0101960E94940C67E872E0E4
:102A4000CE0107960E94630CBE016F5F7F4FCE01DF
:102A500007960E94E10C0E942D0BCE0107960E9462
:102A6000140DCE0101960E94140D80E095E00E94A5
:102A70001808AB01BC01CE0101960E94940C6EE9CE
:102A800072E0CE0107960E94630CBE016F5F7F4F1C
:102A9000CE0107960E94E10C0E942D0BCE010796F5
:102AA0000E94140DCE0101960E94140D64EF71E096
:102AB00080E090E00E94FC010115110509F487CE29
:102AC0000E949802882309F482CE0E9400007FCEE3
:102AD000CF93DF93E8EBF4E08CE891E0918380837F
:102AE000CAE7D1E0D78BC68B0E946206E0E0F5E032
:102AF00084E791E091838083D78BC68B0E94620626
:102B0000E8E4F5E08EE691E091838083D78BC68B75
:102B10000E946206E0E9F5E088E691E09183808317
:102B2000D78BC68B0E946206E8EDF5E082E691E065
:102B300091838083D78BC68BDF91CF910C946206F3
:102B4000EF920F931F93CF93DF93E80134E047FD9B
:102B500034E1042E000C550B57FF03C051954195ED
:102B60005109E32E022F242FAE010E94BE15CE0183
:102B7000DF91CF911F910F91EF900895A9E0B0E000
:102B8000E4ECF5E10C94F6186A01F22EB02E102F49
:102B9000FBE3AF2EA01608F41BE31F5F012F27E015
:102BA000AE014F5F5F4F0E941D17BC018981982FB6
:102BB0009970913009F43FC09BE2E1FC04C09E2D66
:102BC0009170E0FC3AC05E2D5071E82FE87083FFF1
:102BD00046C084E0911101C083E0EF2DE81B8F1502
:102BE00008F0E0E0D6018E2F20E2552351F1992321
:102BF00029F0D6019C93C60101966C0196012D5FC8
:102C00003F4FE2FE24C08EE4D6018C9391E41196EE
:102C10009C93119712968C93D9018E2F90E281117B
:102C20001BC0E20FF32FF11D10828EEF9FEF29964C
:102C3000ECE00C9412199DE2C6CF90E2C4CF2D9324
:102C400081508111FCCFCE0ED11CE0E0D0CF8EE6BA
:102C5000D6018C9391E6DBCF9D938150E0CF482F36
:102C6000447082FF3DC084E0911101C083E08F1564
:102C700010F4EF2DE81BD6018E2F20E2552309F129
:102C8000992329F0D6019C93C60101966C01960107
:102C90002D5F3F4FE2FE1BC089E4D6018C938EE48A
:102CA00011968C93119786E412968C93D9018E2FEE
:102CB00090E2882309F4B5CF9D938150FACF2D93EC
:102CC00081508111FCCFCE0ED11CE0E0D9CF89E636
:102CD000D6018C938EE611968C93119786E6E4CFFD
:102CE0009B0177FF02C030E020E0A1E0B0E091114D
:102CF00002C0B0E0A0E0F9013196AE0FBF1F8B2CEF
:102D0000912CBB2009F461C05401EFEFAE1ABE0A4A
:102D1000AA0DBB1DFA161B0619F014F04F2D4A1B05
:102D2000511188C0E3FC59C07601A42FB0E2A11173
:102D30004FC0C40ED11C992309F45BC040E0D601FA
:102D40001196F60190836D01552309F448C0012FB7
:102D5000060F9A81582F507184FF03C0913309F4F4
:102D6000015010160CF047C0093008F008E0EEE200
:102D7000FE2E5B01A01AB1088501919481949108FF
:102D80002F3F320729F4D601FC92F60131966F01EC
:102D90006217730794F1021713077CF5DB01A21B7E
:102DA000B30BAA24A394B12CAC0EBD1EAA0DBB1D5F
:102DB00011968C9121503109D601119628153905AB
:102DC000F4F0F60180836D01DBCFB12CA12CA0CFF4
:102DD000F701B1937F01A150AACF9111B0CFD601D5
:102DE000942F50E302C05D9391509111FCCFC40E1B
:102DF000D11C40E0ACCF01E0BACF80E3DBCF62175B
:102E0000730731F4963388F4953311F4552369F040
:102E1000F6018083FD01842F90E2811108C0A40F88
:102E2000B11D1C9290E080E002CF81E3F1CF91933D
:102E30008150F3CF911183CF8ACF283008F027E05B
:102E40003327DA01990F311D87FD916000966105E6
:102E5000710539F432602E5F3D9330E32A95E1F736
:102E600008959F3F30F080387105610509F03C5F9F
:102E70003C5F3D93913008F08068911DDF93CF93C4
:102E80001F930F93FF92EF92192F987F9695E92F3A
:102E900096959695E90FFF27EE53FF4F9927332715
:102EA000EE24FF24A701E70105900894079428F475
:102EB000360FE71EF81E491F511D660F771F881F2A
:102EC000991F0694A1F70590079428F4E70EF81EC1
:102ED000491F561FC11D770F881F991F661F069433
:102EE000A1F70590079428F4F80E491F561FC71F35
:102EF000D11D880F991F661F771F0694A1F70590B3
:102F0000079420F4490F561FC71FD81F990F661F3B
:102F1000771F881F0694A9F784911095177041F0C8
:102F2000D695C79557954795F794E7941A95C1F7A5
:102F3000E8E6F0E0689415901591359165919591CA
:102F400005907FE27395E118F10A430B560BC90B0C
:102F5000D009C0F7E10CF11E431F561FC91FD01D39
:102F60007EF4703311F48A95E6CFE894015030F086
:102F7000080F0AF40027021708F4202F2395022FC8
:102F80007A3328F079E37D932A95E9F710C07D9391
:102F90002A9589F60694979567953795179517940E
:102FA000E118F10A430B560BC90BD00998F0239591
:102FB0007E9173957A3308F070E37C932013B8F711
:102FC0007E9170617D9330F0839571E37D9370E322
:102FD0002A95E1F71124EF90FF900F911F91CF9167
:102FE000DF91992787FD90950895E89409C097FB94
:102FF0003EF490958095709561957F4F8F4F9F4FD0
:103000009923A9F0F92F96E9BB279395F695879513
:1030100077956795B795F111F8CFFAF4BB0F11F4D6
:1030200060FF1BC06F5F7F4F8F4F9F4F16C088237D
:1030300011F096E911C0772321F09EE8872F762FB3
:1030400005C0662371F096E8862F70E060E02AF0F4
:103050009A95660F771F881FDAF7880F96958795E0
:1030600097F908950E9445180C94B6180E94A81864
:1030700038F00E94AF1820F0952311F00C949F189F
:103080000C94A51811240C94EA180E94C71870F328
:10309000959FC1F3950F50E0551F629FF001729FFD
:1030A000BB27F00DB11D639FAA27F00DB11DAA1F0C
:1030B000649F6627B00DA11D661F829F2227B00D59
:1030C000A11D621F739FB00DA11D621F839FA00DE4
:1030D000611D221F749F3327A00D611D231F849F34
:1030E000600D211D822F762F6A2F11249F5750408B
:1030F0009AF0F1F088234AF0EE0FFF1FBB1F661F06
:10310000771F881F91505040A9F79E3F510580F0CE
:103110000C949F180C94EA185F3FE4F3983ED4F3A4
:10312000869577956795B795F795E7959F5FC1F772
:10313000FE2B880F911D9695879597F9089597F91D
:103140009F6780E870E060E008959FEF80EC08954D
:1031500000240A9416161706180609060895002476
:103160000A9412161306140605060895092E0394F0
:10317000000C11F4882352F0BB0F40F4BF2B11F464
:1031800060FF04C06F5F7F4F8F4F9F4F089557FDC3
:103190009058440F551F59F05F3F71F04795880FC5
:1031A00097FB991F61F09F3F79F08795089512165C
:1031B00013061406551FF2CF4695F1DF08C0161608
:1031C00017061806991FF1CF8695710561050894B9
:1031D0000895E894BB2766277727CB0197F90895D0
:1031E0002F923F924F925F926F927F928F929F9217
:1031F000AF92BF92CF92DF92EF92FF920F931F9305
:10320000CF93DF93CDB7DEB7CA1BDB0B0FB6F894B5
:10321000DEBF0FBECDBF09942A88398848885F84F5
:103220006E847D848C849B84AA84B984C884DF8066
:10323000EE80FD800C811B81AA81B981CE0FD11D4A
:103240000FB6F894DEBF0FBECDBFED01089597FB1A
:10325000072E16F4009407D077FD09D00E943B1981
:1032600007FC05D03EF4909581959F4F0895709589
:1032700061957F4F0895AA1BBB1B51E107C0AA1F90
:10328000BB1FA617B70710F0A61BB70B881F991F07
:103290005A95A9F780959095BC01CD010895EE0F40
:1032A000FF1F0590F491E02D09945058BB27AA27E1
:1032B0000E946D190C94B6180E94A81838F00E944C
:1032C000AF1820F039F49F3F19F426F40C94A51898
:1032D0000EF4E095E7FB0C949F18E92F0E94C718A5
:1032E00058F3BA17620773078407950720F079F43B
:1032F000A6F50C94E9180EF4E0950B2EBA2FA02D2C
:103300000B01B90190010C01CA01A0011124FF2792
:10331000591B99F0593F50F4503E68F11A16F0408D
:10332000A22F232F342F4427585FF3CF469537958C
:103330002795A795F0405395C9F77EF41F16BA0B51
:10334000620B730B840BBAF09150A1F0FF0FBB1FFF
:10335000661F771F881FC2F70EC0BA0F621F731F48
:10336000841F48F4879577956795B795F7959E3FA5
:1033700008F0B0CF9395880F08F09927EE0F979536
:10338000879508950F931F93CF93DF938230910514
:1033900010F482E090E0E091C806F091C90630E0B8
:1033A00020E0B0E0A0E0309799F42115310509F450
:1033B0004AC0281B390B24303105D8F58A819B81FE
:1033C0006115710589F1FB0193838283FE0111C0B0
:1033D000408151810281138148175907E0F0481755
:1033E000590799F4109761F012960C93129713965F
:1033F0001C933296CF01DF91CF911F910F910895C9
:103400000093C8061093C906F4CF2115310551F079
:103410004217530738F0A901DB019A01BD01DF0112
:10342000F801C1CFEF01F9CF9093C9068093C80688
:10343000CDCFFE01E20FF31F81939193225031090A
:1034400039832883D7CF2091C6063091C706232B16
:1034500041F420910201309103013093C70620937B
:10346000C60620910001309101012115310541F47A
:103470002DB73EB74091040150910501241B350B37
:10348000E091C606F091C706E217F307A0F42E1BE1
:103490003F0B2817390778F0AC014E5F5F4F2417B8
:1034A000350748F04E0F5F1F5093C7064093C6067E
:1034B000819391939FCFF0E0E0E09CCFCF93DF9397
:1034C0000097E9F0FC01329713821282A091C8069E
:1034D000B091C906ED0130E020E01097A1F4208101
:1034E0003181820F931F2091C6063091C70628179D
:1034F000390709F061C0F093C706E093C606DF9173
:10350000CF910895EA01CE17DF07E8F54A815B8184
:103510009E0141155105B1F7E901FB83EA83499109
:103520005991C40FD51FEC17FD0761F4808191817B
:103530000296840F951FE901998388838281938184
:103540009B838A83F0E0E0E012968D919C91139723
:103550000097B9F52D913C911197CD010296820FFC
:10356000931F2091C6063091C7062817390739F6F0
:10357000309751F51092C9061092C806B093C7064D
:10358000A093C606BCCFD383C28340815181840FF0
:10359000951FC817D90761F44E5F5F4F88819981E5
:1035A000480F591F518340838A819B819383828373
:1035B0002115310509F0B0CFF093C906E093C80694
:1035C0009ECFFD01DC01C0CF13821282D7CFB0E0C5
:1035D000A0E0EDEEFAE10C94F2188C01009751F4A2
:1035E000CB010E94C2198C01C801CDB7DEB7E0E162
:1035F0000C940E19FC01E60FF71F9C0122503109B3
:10360000E217F30708F49DC0D901CD91DC91119721
:10361000C617D70798F0C530D10530F3CE0104970F
:103620008617970708F3C61BD70B2297C193D19330
:103630006D937C93CF010E945E1AD6CF5B01AC1ACA
:10364000BD0A4C018C0E9D1EA091C806B091C90602
:10365000512C412CF12CE12C109731F58091C606AC
:103660009091C7068815990509F05CC04616570663
:1036700008F058C08091000190910101009741F439
:103680008DB79EB74091040150910501841B950BA5
:10369000E817F90708F055C0F093C706E093C6068F
:1036A000F90171836083A0CF8D919C91119712963F
:1036B0006C90129713967C901397A815B90559F53D
:1036C0006C0142E0C40ED11CCA14DB0420F1AC0131
:1036D0004A195B09DA011296159780F062827382AB
:1036E00051834083D9016D937C93E114F10471F00F
:1036F000D7011396FC93EE93129776CF22968C0FF8
:103700009D1FF90191838083F301EFCFF093C906E8
:10371000E093C80669CF4816590608F42C017D01CC
:10372000D3019ACFCB010E94C2197C01009749F0C6
:10373000AE01B8010E94A41BC8010E945E1A870155
:1037400053CF10E000E050CFFB01DC0102C001903C
:103750000D9241505040D8F70895FB01DC010190D3
:103760000D920020E1F7089510E0CFEDD0E004C005
:10377000FE010E944F192196C03ED107C9F7F89467
:02378000FFCF79
:103782000000CA068000010300060001640B010369
:103792000015000195CE0103001E0001E40C010397
:1037A2000020000185C00103001F0001B5CC00000C
:1037B2000000CE022E025B021B038C026A027E0212
:1037C20000000000B9058C058B0A620585057205AB
:1037D2006305000000009009000000000F0A0000CD
:1037E2000000D008000000002C090000000074084E
:1037F200000000001808000000008A092E028B0A4F
:103802008809ED051006FD0500000000BC07000058
:103812000000A10B00000000E50B00000000540DA9
:103822000D0A00796573006E6F00456E64206F6645
:1038320020626174746572793A200048656174652A
:103842007220656E61626C65643A2000446973613E
:10385200626C65204F54502072656C6F61643A202F
:103862000044697374616E63652076616C75653AB4
:1038720020005261696E2076616C75653A200044C1
:1038820048542048756D69646974792076616C7555
:10389200653A20004448542054656D706572617425
:1038A2007572652076616C75653A200053687432D2
:1038B200302048756D69646974792076616C75652C
:1038C2003A200053687432302054656D706572611D
:1038D200747572652076616C75653A20004D50539F
:1038E20050682076616C75653A20004D50534563EF
:1038F2002076616C75653A20004E6974726F20768D
:10390200616C75653A20004D505350686F73706852
:103912006F726F75732076616C75653A20004D5039
:1039220053506F7461737369756D2076616C756540
:043932003A20000037
:00000001FF
