:100000000C9463000C948B000C948B000C948B006C
:100010000C948B000C948B000C948B000C948B0034
:100020000C948B000C948B000C949F0E0C94490F35
:100030000C94580E0C948B000C948B000C948B0039
:100040000C94970C0C948B000C94070D0C94E10C01
:100050000C948B000C948B000C948B000C948B00F4
:100060000C94390D0C948B00000000002300260036
:10007000290000000000240027002A0000000000E2
:10008000250028002B0000000008000201000003EA
:10009000040700000000000000000404040404043D
:1000A0000404020202020202030303030303010227
:1000B00004081020408001020408102001020408F6
:1000C00010202410321311241FBECFEFD8E0DEBF62
:1000D000CDBF11E0A0E0B1E0EEEFFAE202C0059082
:1000E0000D92AA3EB107D9F726E0AAEEB1E001C011
:1000F0001D92A431B207E1F710E0C2E6D0E004C0DF
:100100002197FE010E949213C136D107C9F70E94C0
:100110007D120C9472150C940000CF92DF92EF9236
:10012000FF92CF93DF936A017B01E901688970E058
:1001300090E080E00E947914A70196010E940515C5
:100140006B017C01698970E090E080E00E94791485
:100150009B01AC01C701B6010E949913DF91CF91B9
:10016000FF90EF90DF90CF90089590E0FC01EA5768
:10017000FF4F2491FC01E255FF4F3491FC01E656FC
:10018000FF4FE491EE23C9F0222339F0233001F12F
:10019000A8F4213019F1223029F1F0E0EE0FFF1F11
:1001A000E458FF4FA591B4918FB7F894EC91611189
:1001B00026C030953E233C938FBF08952730A9F089
:1001C0002830C9F0243049F7809180008F7D03C02A
:1001D000809180008F7780938000DFCF84B58F7708
:1001E00084BDDBCF84B58F7DFBCF8091B0008F774E
:1001F0008093B000D2CF8091B0008F7DF9CF3E2B9D
:10020000DACFCF93DF9390E0FC01E255FF4F2491CA
:1002100086569F4FFC0184918823C9F090E0880F97
:10022000991FFC01EE58FF4FA591B491FC01E458D1
:10023000FF4FC591D49161110DC09FB7F8948C9177
:10024000209582238C938881282328839FBFDF9168
:10025000CF910895623051F49FB7F8943C91822F6A
:10026000809583238C93E8812E2BEFCF8FB7F89462
:10027000EC912E2B2C938FBFEACFCF93DF93CFE659
:10028000D0E018821092800081E88093810083E89A
:1002900096E09093DC028093DB028BE39CE39093E7
:1002A000DA028093D90262E088E00E94010161E0F5
:1002B00089E00E94B50061E089E00E94010110928E
:1002C000D8021092D7021092D6021092D502109244
:1002D000D4021092D30280E286BB8883DF91CF9153
:1002E00008953FB7F8948091CF029091D002A091E9
:1002F000D102B091D20226B5A89B05C02F3F19F0BC
:100300000196A11DB11D3FBFBA2FA92F982F882795
:10031000BC01CD01620F711D811D911D42E0660F70
:10032000771F881F991F4A95D1F708958F929F9242
:10033000AF92BF92CF92DF92EF92FF924B015C019E
:100340000E9471016B017C010E9471016C197D0991
:100350008E099F09683E734081059105A8F321E04D
:10036000821A9108A108B10888EEC80E83E0D81E51
:10037000E11CF11C81149104A104B10429F7FF9040
:10038000EF90DF90CF90BF90AF909F908F900895A7
:10039000AF92BF92CF92DF92EF92FF920F931F9393
:1003A000CF93DF936C017B018B01040F151FEB01D1
:1003B0005E01AE18BF08C017D10759F06991D60188
:1003C000ED91FC910190F081E02DC6010995892BFA
:1003D00079F7C501DF91CF911F910F91FF90EF90B9
:1003E000DF90CF90BF90AF900895FC01538D448D66
:1003F000252F30E0842F90E0821B930B541710F0D0
:10040000CF96089501970895FC01918D828D9817DC
:1004100061F0A28DAE0FBF2FB11D5D968C91928DB4
:100420009F5F9F73928F90E008958FEF9FEF0895E5
:10043000FC01918D828D981731F0828DE80FF11DAE
:10044000858D90E008958FEF9FEF0895FC01918DC9
:10045000228D892F90E0805C9F4F821B91098F73C2
:10046000992708958DE493E00E94260221E0892BCC
:1004700009F420E0822F089580E090E0892B29F094
:100480000E94320281110C9400000895FC01A48D99
:10049000A80FB92FB11DA35ABF4F2C91848D90E0A6
:1004A00001968F739927848FA689B7892C93A08989
:1004B000B1898C91837080648C93938D848D981313
:1004C00006C00288F389E02D80818F7D80830895A6
:1004D000EF92FF920F931F93CF93DF93EC0181E094
:1004E000888F9B8D8C8D98131AC0E889F98980813B
:1004F00085FF15C09FB7F894EE89FF896083E8896E
:10050000F98980818370806480839FBF81E090E05F
:10051000DF91CF911F910F91FF90EF900895F62EEC
:100520000B8D10E00F5F1F4F0F731127E02E8C8D86
:100530008E110CC00FB607FCFACFE889F9898081CB
:1005400085FFF5CFCE010E944602F1CFEB8DEC0F77
:10055000FD2FF11DE35AFF4FF0829FB7F8940B8FE8
:10056000EA89FB8980818062CFCFCF93DF93EC0152
:10057000888D8823B9F0AA89BB89E889F9898C918B
:1005800085FD03C0808186FD0DC00FB607FCF7CF47
:100590008C9185FFF2CF808185FFEDCFCE010E9447
:1005A0004602E9CFDF91CF9108952091A702260F4F
:1005B0003327331F21323105ECF420914703FC012E
:1005C00090E080E0243069F082E00895A091A702D5
:1005D0002191AC014B575D4FA40FB52FB11D2C934A
:1005E0000196861798F38091A702680F6093A7027F
:1005F00080E0089581E008951092470381E08093A0
:1006000026031092210361E082E10E94B50061E0BF
:1006100083E10E94B500E9EBF0E080818E7F80836A
:1006200080818D7F808388E48093B80085E4809307
:10063000BC000895CF93DF9391E0909384028823C8
:10064000B9F0C091B800D091BA008091BC008A7B0B
:100650008093BC0060E082E10E94B50060E083E12D
:100660000E94B5000E94FC02D093BA00C093B8006B
:10067000DF91CF910895CF92DF92EF92FF920F9387
:100680001F93CF93DF93D82FC62F613208F098C005
:100690000E9471016B017C018091470381116BC045
:1006A00081E080934703809326039FEF9093250377
:1006B000109224039C0F9093230380932203809134
:1006C0002203DD0FD82BD0932203809121038130A8
:1006D00009F078C0109221030E9471016B017C0126
:1006E000809122038093BB008091490390914A033B
:1006F000A0914B03B0914C03892B8A2B8B2BA1F03B
:100700000E9471010091490310914A0320914B030B
:1007100030914C036C197D098E099F090617170744
:100720002807390708F448C08091BC0083FDD8CF62
:1007300085EC8093BC000E9471016B017C0180916B
:100740004703813009F440C0809124038C1710F4D2
:10075000C0912403E1E0F3E0A7E2B3E080E08C1372
:1007600055C08C2FDF91CF911F910F91FF90EF908B
:10077000DF90CF9008958091490390914A03A09112
:100780004B03B0914C03892B8A2B8B2B09F484CF1C
:100790000E9471010091490310914A0320914B037B
:1007A00030914C036C197D098E099F0906171707B4
:1007B0002807390708F070CF809148030E941A0378
:1007C000C0E0CFCF85EEB5CF8091490390914A0329
:1007D000A0914B03B0914C03892B8A2B8B2B09F4EE
:1007E000AECF0E9471010091490310914A032091FC
:1007F0004B0330914C036C197D098E099F09061734
:1008000017072807390708F09ACFD6CF91919D9303
:100810008F5FA5CF8F929F92AF92BF92CF92DF92C0
:10082000EF92FF920F931F93CF93DF93D09100032A
:10083000D13208F0D7C0182FC091FF020E94710179
:100840006B017C018091470381116BC082E0809332
:100850004703109326038FEF809325031092240300
:10086000D0932303AFEDB2E0E1E0F3E080E0D813F2
:1008700091C01092220380912203CC0FC82BC09309
:10088000220380912103813009F088C01092210356
:100890000E9471016B017C01809122038093BB0057
:1008A0008091490390914A03A0914B03B0914C036E
:1008B000892B8A2B8B2BA1F00E9471010091490397
:1008C00010914A0320914B0330914C036C197D0920
:1008D0008E099F09061717072807390708F442C031
:1008E0008091BC0083FDD8CF85EC8093BC000E9432
:1008F00071016B017C0180914703823009F450C083
:10090000809125038F3F09F46FC0809125038032C9
:1009100009F46CC080912503803309F469C084E038
:1009200026C08091490390914A03A0914B03B09156
:100930004C03892B8A2B8B2B09F484CF0E947101E5
:100940008090490390904A03A0904B03B0904C03D1
:100950006C197D098E099F0986169706A806B906A7
:1009600008F070CF809148030E941A0385E010922E
:10097000DE02109200031092DD02DF91CF911F91F1
:100980000F91FF90EF90DF90CF90BF90AF909F902E
:100990008F9008959D9191938F5F69CF85EEA5CF3C
:1009A0008091490390914A03A0914B03B0914C036D
:1009B000892B8A2B8B2B09F49ECF0E947101009109
:1009C000490310914A0320914B0330914C036C1959
:1009D0007D098E099F09061717072807390708F0B0
:1009E0008ACFC0CF81E0C3CF80E0C1CF82E0BFCF4C
:1009F00083E0BDCF089508950895E091CD028091E0
:100A0000CC02E81730F4F0E0E95DFC4F808190E023
:100A100008958FEF9FEF08959091CD028091CC02C1
:100A20002FEF3FEF981748F4E92FF0E0E95DFC4F16
:100A3000208130E09F5F9093CD02C901089580919D
:100A4000CC029091CD02891B990B0895CF92DF9231
:100A5000EF92FF920F931F93CF93DF937C01CB0113
:100A60008A012091DD02222389F0EB016B01C40E83
:100A7000D51ECC15DD0569F06991D701ED91FC918A
:100A80000190F081E02DC7010995F3CF642F0E94FA
:100A9000D502C801DF91CF911F910F91FF90EF9088
:100AA000DF90CF900895CF93DF931F92CDB7DEB73D
:100AB00069832091DD022223F9F020910003203286
:100AC00058F021E030E0FC013383228390E080E0A5
:100AD0000F90DF91CF9108958091DE02E82FF0E032
:100AE000E152FD4F998190838F5F8093DE02809366
:100AF000000381E090E0ECCF61E0CE0101960E941E
:100B0000D502F7CF8091D6028093D70208955091F5
:100B1000D7024091D602852F90E0242F30E0541761
:100B200018F0821B930B0895805B9F4FFACF809142
:100B3000D702E091D6028E1751F0EF5FE03508F052
:100B4000E0E0F0E0EC5CFD4F808190E008958FEFF5
:100B50009FEF08958091D7029091D602891769F08E
:100B60009F5F903508F090E0E92FF0E0EC5CFD4FDE
:100B700080819093D60290E008958FEF9FEF0895C3
:100B80008091D5028111FCCF08959091D4029F5F8E
:100B9000943408F090E02091D3022917E1F32FB7A5
:100BA000F8943091D502332349F0E92FF0E0E65173
:100BB000FE4F80839093D4022FBF089591E09093CD
:100BC000D50280932F0210922E0282E086BB809184
:100BD0006F00826080936F00809180008F7B8068BF
:100BE000809380008091840090918500409690933E
:100BF000890080938800E0CFCF93DF93CFE6D0E0E9
:100C000088818B7F888388818F7D88830E9482057D
:100C10000E94C00588818D7F8883DF91CF910895E0
:100C2000CF92DF92EF92FF92CF93DF93DC01179682
:100C3000CC911797D0E06111DC2F18962C91189762
:100C400030E0220F331F28593F4F50E040E0F901B8
:100C500085919491FC01F080BA0190E080E0EF2D45
:100C6000EC23ED1310C04F5F5F4F1D96CD90DD90CC
:100C7000ED90FC9050976C157D058E059F0538F31F
:100C80006FEF7FEFCB01DF91CF91FF90EF90DF907F
:100C9000CF9008958F929F92AF92BF92CF92DF92A2
:100CA000EF92FF920F931F93CF93DF93CDB7DEB7F1
:100CB000C054D1400FB6F894DEBF0FBECDBF2FB7E2
:100CC000F8944091EA035091EB036091EC0370912A
:100CD000ED032FBFFC0101851285238534856A0150
:100CE0007B01C01AD10AE20AF30A97018601003D8E
:100CF000174021053105B0F4FC018189C05CDE4F4D
:100D00000FB6F894DEBF0FBECDBFDF91CF911F911C
:100D10000F91FF90EF90DF90CF90BF90AF909F909A
:100D20008F9008958C01FC014187528763877487F7
:100D30001482138212821182108262E085810E94E5
:100D4000010161E070E080E090E00E94960161E0C6
:100D5000F80185810E94010160E0F80185810E940F
:100D6000B500F80186818551823028F58BE291E14A
:100D70000197F1F762E0F80185810E940101F80115
:100D8000828990E08230910538F0880F991F880F92
:100D9000991F05970197F1F7F89460E0C8010E9448
:100DA00010066F3F7F4F8F4F9F4F61F4F801118AFC
:100DB000789480E0A3CF64E170E080E090E00E944E
:100DC0009601D8CF61E0C8010E9410066F3F7F4FA7
:100DD0008F4F9F4F59F3CE0101967C015E019FEB2F
:100DE000A91A9EEFB90A670160E0C8010E941006C7
:100DF000F601608371838283938361E0C8010E945E
:100E00001006F6016483758386839783F8E0CF0E1E
:100E1000D11CCA14DB0441F7789430E020E0F701DC
:100E200080809180A280B3804481558166817781E2
:100E3000FFEF8F169F06AF06BF0631F04F3F8FEFD3
:100E400058076807780719F4F801118AB2CFF90139
:100E500083E0F595E7958A95E1F7E00FF11F808132
:100E6000880F84169506A606B706F0F080832F5FDC
:100E70003F4FF8E0EF0EF11C2832310581F6F80102
:100E8000448120818181280F3327331F8281280FDD
:100E9000311D8381820F932F911D992748171906C1
:100EA00099F681E0818B2ACF8160E0CFCF92DF92EB
:100EB000EF92FF920F931F93CF93DF93EC010E9469
:100EC0003D010E94820561E08BE00E94B50061E077
:100ED00070E080E090E00E94960100E211E0F801ED
:100EE00081918F010E94C505F1E008321F07B9F713
:100EF0006E0186E1C80ED11C0E94C00560E08BE047
:100F00000E94B50064EF71E080E090E00E949601DD
:100F10008E010E5D1F4F7E01E0E3EE0EF11CC60157
:100F20000E94AA05F801819391938F01EE15FF05A8
:100F3000B1F780E098A52AA53BA5820F931F6AE030
:100F400070E00E946A13072E000C880B990B0E9418
:100F50007914DF91CF911F910F91FF90EF90DF9067
:100F6000CF900895CF92DF92EF92FF920F931F934D
:100F7000CF93DF93EC010E943D010E94820561E066
:100F80008BE00E94B50061E070E080E090E00E949C
:100F9000960108E111E0F80181918F010E94C505D9
:100FA000F1E000321F07B9F76E0186E1C80ED11CCF
:100FB0000E94C00560E08BE00E94B50064EF71E024
:100FC00080E090E00E9496018E010E5D1F4F7E0131
:100FD000E0E3EE0EF11CC6010E94AA05F801819320
:100FE00091938F01EE15FF05B1F780E098A52AA532
:100FF0003BA5820F931F6AE070E00E946A13072EE0
:10100000000C880B990B0E947914DF91CF911F91EE
:101010000F91FF90EF90DF90CF900895CF92DF92E5
:10102000EF92FF920F931F93CF93DF93EC010E94F7
:101030003D010E94820561E08BE00E94B50061E005
:1010400070E080E090E00E94960100E111E0F8017C
:1010500081918F010E94C505F1E008311F07B9F7A2
:101060006E0186E1C80ED11C0E94C00560E08BE0D5
:101070000E94B50064EF71E080E090E00E9496016C
:101080008E010E5D1F4F7E01E0E3EE0EF11CC601E6
:101090000E94AA05F801819391938F01EE15FF0537
:1010A000B1F780E098A52AA53BA5820F931F6AE0BF
:1010B00070E00E946A13072E000C880B990B0E94A7
:1010C0007914DF91CF911F910F91FF90EF90DF90F6
:1010D000CF900895CF92DF92EF92FF920F931F93DC
:1010E000CF93DF93EC010E943D010E94820561E0F5
:1010F0008BE00E94B50061E070E080E090E00E942B
:10110000960108E011E0F80181918F010E94C50568
:10111000F1E000311F07B9F76E0186E1C80ED11C5E
:101120000E94C00560E08BE00E94B50064EF71E0B2
:1011300080E090E00E9496018E010E5D1F4F7E01BF
:10114000E0E3EE0EF11CC6010E94AA05F8018193AE
:1011500091938F01EE15FF05B1F780E098A52AA5C0
:101160003BA5820F931F6AE070E00E946A13072E6E
:10117000000C880B990B0E947914DF91CF911F917D
:101180000F91FF90EF90DF90CF900895CF92DF9274
:10119000EF92FF920F931F93CF93DF93EC010E9486
:1011A0003D010E94820561E08BE00E94B50061E094
:1011B00070E080E090E00E94960100E011E0F8010C
:1011C00081918F010E94C505F1E008301F07B9F732
:1011D0006E0186E1C80ED11C0E94C00560E08BE064
:1011E0000E94B50064EF71E080E090E00E949601FB
:1011F0008E010E5D1F4F7E01E0E3EE0EF11CC60175
:101200000E94AA05F801819391938F01EE15FF05C5
:10121000B1F780E098A52AA53BA5820F931F6AE04D
:1012200070E00E946A13072E000C880B990B0E9435
:101230007914DF91CF911F910F91FF90EF90DF9084
:10124000CF9008950C94C005862F0E94C50581E0BB
:1012500090E00895CF92DF92EF92FF92CF938EEEBF
:1012600095E00E944A06882341F08091F4058C3075
:1012700009F44FC038F48B30F1F060E070E080EC9E
:101280009FE741C085518230C0F7C091F0056C2FB7
:1012900070E0762F662766277F778091F105682BAF
:1012A00090E080E00E9477142DEC3CEC4CEC5DE388
:1012B0000E9405154AC06091F00570E090E080E062
:1012C0000E9477146B017C01C091F105C7FF0AC031
:1012D000AC019B0160E070E080E89FEB0E949813F6
:1012E0006B017C01CF706C2F70E090E080E00E9479
:1012F00079142DEC3CEC4CEC5DE30E940515A70144
:1013000096010E949913CF91FF90EF90DF90CF90BC
:101310000895C091F0056C2F70E090E080E00E948D
:1013200077146B017C016091F1056F7070E090E0C3
:1013300080E00E9479142DEC3CEC4CEC5DE30E94C3
:101340000515A70196010E949913C7FFDCCF90589D
:10135000DACFCF92DF92EF92FF9281E096E00E9487
:101360004A06882349F0809107068B3028F08D309B
:1013700040F08551823030F160E070E080EC9FE712
:101380001CC06091020670E090E080E00E94791439
:101390002DEC3CEC4CEC5DE30E9405156B017C01EF
:1013A0006091010670E090E080E00E9479149B015A
:1013B000AC01C701B6010E949913FF90EF90DF9036
:1013C000CF900895609101067091020676276727F5
:1013D000762790E080E00E9477142DEC3CEC4CECFA
:1013E0005DE30E940515E9CF80E480937C00809145
:1013F0007A00806480937A0080917A0086FDFCCF29
:101400008091780060917900762F682F072E000C6C
:10141000880B990B0E947914089590E080E008955C
:101420008F929F92AF92BF92CF92DF92EF92FF92F4
:101430001F93CF93DF93EC0189819A81288131E05A
:101440003093DD022093FF021092DE02109200031F
:10145000DC01ED91FC910190F081E02D099581E096
:101460000E940A041AE0882371F086EE93E0DF916F
:10147000CF911F91FF90EF90DF90CF90BF90AF90F2
:101480009F908F9008956AE070E080E090E00E9465
:10149000960163E088810E943B031092CD02809305
:1014A000CC02115011F3833071F789819A81DC01EC
:1014B000ED91FC910284F385E02D0995F82E898148
:1014C0009A81DC01ED91FC910284F385E02D099570
:1014D000182F89819A81DC01ED91FC910284F385BA
:1014E000E02D099520E03F2D212BA90170E060E05F
:1014F000762F652F542F4427482B87E190E0C12C8D
:10150000E0E8DE2EE8E9EE2EF12C4A015B01082E20
:1015100004C0B694A794979487940A94D2F780FE57
:1015200004C04C255D256E257F25F694E794D7945D
:10153000C79401978730910541F7C9018C7F4423F7
:1015400009F495CF87EE93E092CFFB010190002044
:10155000E9F73197AF01461B570B0C94C801CF93A5
:10156000DF93EB01BC018DE493E00E94A50A66EADB
:1015700071E0CD2B11F46DEA71E08DE493E00E94EF
:10158000A50A6AEA71E08DE493E0DF91CF910C94B3
:10159000A50ACF93DF93EC0189819A81288131E0FC
:1015A0003093DD022093FF021092DE0210920003BE
:1015B000DC01ED91FC910190F081E02D67EE099541
:1015C00081E00E940A0461E088810E943B0310923E
:1015D000CD028093CC0289819A81DC01ED91FC914E
:1015E0000284F385E02D0995C82F682F607470E0A0
:1015F00080EB91E00E94AF0A6C2F647070E081EC88
:1016000091E00E94AF0AC2706C2F70E082ED91E011
:10161000DF91CF910C94AF0AFC018185811120C02C
:101620001092CD021092CC021092DE0210920003B2
:101630000E94FC028AEF94E09093A6028093A50298
:101640008BEF94E09093AA028093A90264E670E085
:1016500080E090E00E9496018CED95E00E94C90A1E
:1016600063EF8CED95E00E94100A9C01265E3340EA
:10167000BC0190E080E02230310518F40E9477141C
:1016800008950E94771422E538EB4FE25BE30E9455
:10169000051526E636E64BE352E40E9498130895BA
:1016A000FC018185811120C01092CD021092CC02E4
:1016B0001092DE02109200030E94FC028AEF94E076
:1016C0009093A6028093A5028BEF94E09093AA02D8
:1016D0008093A90264E670E080E090E00E949601A9
:1016E0008BEE95E00E94C90A65EF8BEE95E00E94B3
:1016F000100A9C01265E3340BC0190E080E022305D
:10170000310518F40E94771408950E94771420E0A0
:1017100030E04AEF5AE30E94051520E030E040EC4B
:1017200050E40E9498130895CF92DF92EF92FF92B7
:10173000CF93DF93EC0167EE71E08DE493E00E94BC
:10174000A50A8A859B8501969B878A878E81882337
:10175000B9F061E070E080E090E00E9496012A8597
:101760003B858F8198852817390718F01B861A86C4
:101770001E82DF91CF91FF90EF90DF90CF90089580
:10178000E881F9810190F081E02DCE0109952A814F
:101790003B814C815D810E9499136B017C01CA825F
:1017A000DB82EC82FD826A857B8589858617170638
:1017B00009F0F8F66115710589F190E080E00E946A
:1017C00077149B01AC01C701B6010E9405146B019F
:1017D0007C011A821B821C821D821B861A866889E4
:1017E00070E090E080E00E947914A70196010E94C9
:1017F00005156B017C01698970E090E080E00E9432
:1018000079149B01AC01C701B6010E9499136C8742
:101810007D878E879F8781E08E83ABCFC12CD12CB3
:101820007601D7CF85ED8093BC00809149039091DC
:101830004A03A0914B03B0914C030796A11DB11D23
:1018400023E0B695A795979587952A95D1F720918E
:10185000BC0024FD03C01092470308954091490342
:1018600050914A0360914B0370914C03452B462BDA
:10187000472B69F30097A105B10541F025E32A95AF
:10188000F1F700000197A109B109E1CF8091480368
:101890000C941A030F931F9361E086E00E940101EC
:1018A00060E086E00E94B50083E090E00197F1F7E8
:1018B00061E086E00E94B50083E290E00197F1F7D5
:1018C00060E086E00E94B50060E085E00E940101D2
:1018D000E3EBF0E06491EFE9F0E0E491F0E0EE0F8B
:1018E000FF1FE859FF4F8591949100E412E42FE027
:1018F00030E0462F0E94DF0F6115710581059105CB
:1019000029F06F5F7F4F8F4F9F4F9F700E9477141A
:1019100026E933E44BE05DE30E94051520E030E06A
:1019200040E05FE30E9405151F910F9108951F92FB
:101930000F920FB60F9211242F933F938F939F9383
:10194000AF93BF938091EA039091EB03A091EC03D6
:10195000B091ED033091CE0223E0230F2D3758F5DF
:101960000196A11DB11D2093CE028093EA039093AE
:10197000EB03A093EC03B093ED038091CF02909121
:10198000D002A091D102B091D2020196A11DB11D49
:101990008093CF029093D002A093D102B093D20251
:1019A000BF91AF919F918F913F912F910F900FBE5B
:1019B0000F901F90189526E8230F0296A11DB11DC8
:1019C000D2CF1F920F920FB60F9211242F933F93F5
:1019D0004F935F936F937F938F939F93AF93BF9337
:1019E000EF93FF938DE493E00E944602FF91EF9105
:1019F000BF91AF919F918F917F916F915F914F9127
:101A00003F912F910F900FBE0F901F9018951F922E
:101A10000F920FB60F9211242F938F939F93EF93F2
:101A2000FF93E0915D03F0915E038081E091630399
:101A3000F091640382FD1BC09081809166038F5FEB
:101A40008F7320916703821741F0E0916603F0E005
:101A5000E35BFC4F958F80936603FF91EF919F911D
:101A60008F912F910F900FBE0F901F90189580812E
:101A7000F4CF1F920F920FB60F9211242F933F9322
:101A80004F935F936F937F938F939F93AF93BF9386
:101A9000EF93FF938091B900887F803609F44AC0A4
:101AA000F0F5883209F4A7C018F5803109F49BC01D
:101AB000B8F4882309F4F9C0883009F494C0FF9180
:101AC000EF91BF91AF919F918F917F916F915F91B6
:101AD0004F913F912F910F900FBE0F901F9018952F
:101AE000883109F488C0803251F78093250314C0EF
:101AF000803409F49DC040F48033B9F38833F9F69B
:101B00008093250385ECB0C0803509F485C0883505
:101B100009F496C0883499F60E94120CD0CF883907
:101B200009F48CC038F5883729F050F4883611F064
:101B3000803729F683E0809347031092CB0257C089
:101B4000883809F47BC0803919F0803809F0B7CFA4
:101B50008091CB02803208F071C0E091CB0281E02D
:101B60008E0F8093CB028091BB00F0E0E555FD4FD6
:101B700080833DC0803B39F0E0F4803A09F479C0BD
:101B8000883A09F09CCF84E0809347031092A80222
:101B90001092A702E091A502F091A602099580910A
:101BA000A70281110FC081E08093A70210928502E5
:101BB00009C0803C09F4A6CF883C09F4A3CF883B38
:101BC00009F07DCFE091A80281E08E0F8093A802FA
:101BD000F0E0EB57FD4F80818093BB009091A8020D
:101BE0008091A70229C0809122038093BB0085ECDD
:101BF0008093BC0064CF90912403809123039817B5
:101C000058F5E091240381E08E0F80932403F0E0E7
:101C1000EF5FFC4F8081E9CFE091240381E08E0FDC
:101C2000809324038091BB00F0E0EF5FFC4F808342
:101C300090912403809123039817C8F285E8D8CFA8
:101C4000E091240381E08E0F809324038091BB00F8
:101C5000F0E0EF5FFC4F80838091260381115CCF21
:101C600081E08093210384EA8093BC0010924703B3
:101C700026CF85EC8093BC00109247038091CB0265
:101C8000803230F4E091CB02F0E0E555FD4F108258
:101C90006091CB0270E0E091A902F091AA028BEA78
:101CA00092E009951092CB020ACF1092250334CF0F
:101CB0001F920F920FB60F9211242F938F939F9321
:101CC000EF93FF9380916F008B7F80936F008091E3
:101CD00081008F7B809381008091D8022091330214
:101CE000205890913202893020F49695922B8F5F84
:101CF000FACF909332028091D7028F5F803508F03F
:101D000080E02091D602281739F0E82FF0E0EC5C53
:101D1000FD4F90838093D7021092D802809181006A
:101D20008F7B8093810010923302FF91EF919F91FE
:101D30008F912F910F900FBE0F901F9018951F92AB
:101D40000F920FB60F9211242F933F934F935F93EF
:101D50006F937F938F939F93AF93BF93EF93FF9373
:101D600080918600909187004091330220918100FC
:101D70004423F1F12F7B20938100109233023091A4
:101D8000D80231113CC0411122C02091D9023091BA
:101D9000DA02280F391F30938B0020938A0024E049
:101DA00026BB20916F00246020936F002091DB02FE
:101DB0003091DC02820F931F36952795280F391F2B
:101DC000309331022093300281E08093D802FF915A
:101DD000EF91BF91AF919F918F917F916F915F91A3
:101DE0004F913F912F910F900FBE0F901F9018951C
:101DF00020642093810020E820933302C0CF4091DB
:101E00003002509131026091DB027091DC02DB0103
:101E1000A095B09520913202E0913302841B950B7E
:101E2000A817B90768F126952E2B460F571F3F5F5D
:101E3000861B970B3930A0F32093320280916F00FC
:101E40008B7F80936F008091D7028F5F803508F081
:101E500080E09091D602981749F0E82FF0E0909139
:101E60003202EC5CFD4F90838093D7028091810019
:101E70008F7B80938100109233021092D802A7CFFB
:101E80002093320250933102409330023093D802B3
:101E90009ECF1F920F920FB60F9211242F933F9354
:101EA0004F935F936F937F938F939F93EF93FF93E2
:101EB0002091D50260912F02809188009091890035
:101EC0004091DB025091DC0230912E022A3070F5F5
:101ED000840F951F762F7170293009F471E0669593
:101EE0002F5F371799F3309180007723E1F0306C42
:101EF00030938000909389008093880070932E0225
:101F000060932F022093D502FF91EF919F918F91C3
:101F10007F916F915F914F913F912F910F900FBEE5
:101F20000F901F9018953F7B3068E2CF3091D4021C
:101F3000E091D3023E1319C02A3051F42BE02093D4
:101F4000D502840F951F9093890080938800DCCF81
:101F50001092D502809180008F73809380008091D1
:101F60006F008D7F80936F00CFCFEF5FE43408F078
:101F7000E0E0E093D302F0E0E651FE4F3081309391
:101F80002F0210922E02309180003F7B30683093F8
:101F900080002A3071F42091DB023091DC02820F44
:101FA000931F909389008093880081E08093D502ED
:101FB000ABCF80918400909185004096F2CFCF9274
:101FC000DF92EF92FF920F931F93E82FF92F05C036
:101FD000015011092109310961F19081962394176B
:101FE000B9F305C0015011092109310911F190819E
:101FF00096239413F7CFC12CD12CE12CF12C0AC0DD
:102000008FEFC81AD80AE80AF80A0C151D052E0524
:102010003F0579F080818623841791F36C2D7D2D07
:102020008E2D9F2D1F910F91FF90EF90DF90CF90FD
:10203000089560E070E080E090E01F910F91FF90C4
:10204000EF90DF90CF9008957F928F929F92AF9202
:10205000BF92CF92DF92EF92FF920F931F93CF9395
:10206000DF93EDE4F3E01382128288EE882E83E0A2
:10207000982EA12CB12C84829582A682B7828CE204
:1020800091E09183808385EC90E09587848784EC50
:1020900090E09787868780EC90E0918B808B81EC35
:1020A00090E0938B828B82EC90E0958B848B86EC16
:1020B00090E0978B868B118E128E138E148EAFED5F
:1020C000B5E013961C921E92129714968D929D92D3
:1020D000AD92BC9217978EE391E011969C938E93EC
:1020E00091E0C92E96E0D92ED4E0F601D583CBE05D
:1020F000C68322EB30E0F9018491F60187838EE9F3
:1021000090E0FC014491F601408740E85EE360E026
:1021100070E0458756876787708BEEEEEE2EE5E020
:10212000FE2EF701D583C683F9012491F701278399
:10213000FC018491F7018087458756876787708BFC
:10214000EBEEF5E080E48083B283A183ECEDF5E073
:102150008083B283A18384EA91E09093DB0580932E
:10216000DA05E4ECF5E014861586168617861282E9
:1021700013821482158284E690E090878783CAE0F8
:10218000C18713861286808B118A138A128A8FE088
:1021900097E2958B848BD1E0D6838EE991E0918391
:1021A0008083EEEAF5E0148615861686178612827D
:1021B00013821482158280E197E290878783C1871A
:1021C00013861286D08B118A138A128A80E094E0DB
:1021D000958B848BD68388E991E091838083E8E9AD
:1021E000F5E01486158616861786128213821482ED
:1021F000158208EE13E010870783C18713861286C5
:10220000C08B118A138A128A158B048BD68386E5BC
:1022100091E09183808362E084E00E9401012FB706
:10222000F8948091EA039091EB03A091EC03B091B4
:10223000ED032FBF805D9740A109B109F6018187A9
:102240009287A387B487A7E37A2E728AE2E8F5E043
:1022500014861586168617861282138214821582BA
:1022600010870783C18713861286C08BB8ECDB2EDC
:10227000D18A138A128A158B048BD68380E591E06C
:102280009183808362E0F70185810E9401012FB76D
:10229000F8948091EA039091EB03A091EC03B09144
:1022A000ED032FBF805D9740A109B109F701818738
:1022B0009287A387B487728AECE6F5E014861586C8
:1022C000168617861282138214821582108707835E
:1022D000C18713861286C08B118A138A128A158BC6
:1022E000048BD68382E991E091838083E6E5F5E073
:1022F000148615861686178612821382148215821A
:1023000010870783C18713861286C08BD18A138AF0
:10231000128A158B048BD6838CE891E0918380839D
:10232000EEE0F5E014861586168617861282138273
:102330001482158210870783C18713861286C08B8B
:10234000118A138A128A158B048BD6838CE591E04F
:1023500091838083118E108E828E938EA48EB58E83
:1023600084E7E82E81E0F82EF78AE68A0E943D0194
:1023700061E08BE00E94010160E08BE00E94B5000B
:10238000E6ECF4E014861586168617861282138210
:102390001482158210870783C18713861286C08B2B
:1023A000118A138A128A158B048BD68382E691E0F8
:1023B00091838083118E108E828E938EA48EB58E23
:1023C000F78AE68A0E943D0161E08BE00E940101EC
:1023D00060E08BE00E94B500EEE7F4E0148615861D
:1023E000168617861282138214821582108707833D
:1023F000C18713861286C08B118A138A128A158BA5
:10240000048BD68388E691E091838083118E108EB1
:10241000828E938EA48EB58EF78AE68A0E943D0145
:1024200061E08BE00E94010160E08BE00E94B5005A
:10243000E6E3F4E014861586168617861282138268
:102440001482158210870783C18713861286C08B7A
:10245000118A138A128A158B048BD6838EE691E03B
:1024600091838083118E108E828E938EA48EB58E72
:10247000F78AE68A0E943D0161E08BE00E9401013B
:1024800060E08BE00E94B500EEEEF3E01486158666
:10249000168617861282138214821582108707838C
:1024A000C18713861286C08B118A138A128A158BF4
:1024B000048BD68386E891E091838083118E108E01
:1024C000828E938EA48EB58EF78AE68A0E943D0195
:1024D00061E08BE00E94010160E08BE0DF91CF9131
:1024E0001F910F91FF90EF90DF90CF90BF90AF9032
:1024F0009F908F907F900C94B500789484B5826003
:1025000084BD84B5816084BD85B5826085BD85B597
:10251000816085BD80916E00816080936E00109215
:102520008100809181008260809381008091810090
:102530008160809381008091800081608093800021
:102540008091B10084608093B1008091B00081607F
:102550008093B00080917A00846080937A008091AB
:102560007A00826080937A0080917A008160809303
:102570007A0080917A00806880937A001092C1007E
:10258000E0915D03F0915E0382E08083E091590366
:10259000F0915A031082E0915B03F0915C0380E1BB
:1025A000808310926503E0916103F091620386E0FD
:1025B0008083E0915F03F09160038081806180837C
:1025C000E0915F03F0916003808188608083E091F7
:1025D0005F03F0916003808180688083E0915F03F6
:1025E000F091600380818F7D8083C0E0D0E084EC37
:1025F00095E00E94940B8EEA95E00E94940B88E986
:1026000095E00E94940B82E895E00E94940B8CE682
:1026100095E00E94940B86E595E00E94940B86EC71
:1026200094E00E94940B8EE095E00E94940B8EE75C
:1026300094E00E94940B8EEE93E00E94940B86E34C
:1026400094E00E94940B64EF71E080E090E00E94BF
:102650009601209761F20E943202882341F20E9483
:102660000000C5CFCF93DF93EEEEF3E086E891E074
:1026700091838083C4E7D1E0D78BC68B0E94FC0591
:10268000E6E3F4E08EE691E091838083D78BC68BFE
:102690000E94FC05EEE7F4E088E691E091838083F8
:1026A000D78BC68B0E94FC05E6ECF4E082E691E055
:1026B00091838083D78BC68B0E94FC05EEE0F5E00A
:1026C0008CE591E091838083D78BC68BDF91CF918E
:1026D0000C94FC0597FB072E16F4009407D077FDA9
:1026E00009D00E947E1307FC05D03EF49095819599
:1026F0009F4F0895709561957F4F0895AA1BBB1B4E
:1027000051E107C0AA1FBB1FA617B70710F0A61BF1
:10271000B70B881F991F5A95A9F780959095BC0112
:10272000CD010895EE0FFF1F0590F491E02D09945F
:102730005058BB27AA270E94B0130C94CB140E94B8
:10274000BD1438F00E94C41420F039F49F3F19F4EE
:1027500026F40C94BA140EF4E095E7FB0C94B41430
:10276000E92F0E94DC1458F3BA1762077307840735
:10277000950720F079F4A6F50C94FE140EF4E0957C
:102780000B2EBA2FA02D0B01B90190010C01CA012B
:10279000A0011124FF27591B99F0593F50F4503ED6
:1027A00068F11A16F040A22F232F342F4427585FC8
:1027B000F3CF469537952795A795F0405395C9F7E0
:1027C0007EF41F16BA0B620B730B840BBAF0915098
:1027D000A1F0FF0FBB1F661F771F881FC2F70EC037
:1027E000BA0F621F731F841F48F48795779567950A
:1027F000B795F7959E3F08F0B0CF9395880F08F0F6
:102800009927EE0F9795879508950E9419140C94B7
:10281000CB140E94C41458F00E94BD1440F029F457
:102820005F3F29F00C94B41451110C94FF140C94D4
:10283000BA140E94DC1468F39923B1F3552391F381
:10284000951B550BBB27AA2762177307840738F01F
:102850009F5F5F4F220F331F441FAA1FA9F335D07C
:102860000E2E3AF0E0E832D091505040E695001C30
:10287000CAF72BD0FE2F29D0660F771F881FBB1FEA
:10288000261737074807AB07B0E809F0BB0B802DC8
:10289000BF01FF2793585F4F3AF09E3F510578F0F4
:1028A0000C94B4140C94FF145F3FE4F3983ED4F3FB
:1028B000869577956795B795F7959F5FC9F7880FC8
:1028C000911D9695879597F90895E1E0660F771F1A
:1028D000881FBB1F621773078407BA0720F0621BAB
:1028E000730B840BBA0BEE1F88F7E0950895E894FC
:1028F00009C097FB3EF490958095709561957F4F48
:102900008F4F9F4F9923A9F0F92F96E9BB279395F5
:10291000F695879577956795B795F111F8CFFAF405
:10292000BB0F11F460FF1BC06F5F7F4F8F4F9F4F36
:1029300016C0882311F096E911C0772321F09EE894
:10294000872F762F05C0662371F096E8862F70E0FA
:1029500060E02AF09A95660F771F881FDAF7880FD4
:102960009695879597F9089597F99F6780E870E0A5
:1029700060E008959FEF80EC089500240A941616F5
:10298000170618060906089500240A94121613065D
:10299000140605060895092E0394000C11F48823EB
:1029A00052F0BB0F40F4BF2B11F460FF04C06F5F07
:1029B0007F4F8F4F9F4F089557FD9058440F551FDD
:1029C00059F05F3F71F04795880F97FB991F61F0B1
:1029D0009F3F79F087950895121613061406551F28
:1029E000F2CF4695F1DF08C0161617061806991F94
:1029F000F1CF86957105610508940895E894BB2789
:102A000066277727CB0197F908950E9418150C9433
:102A1000CB140E94BD1438F00E94C41420F09523FA
:102A200011F00C94B4140C94BA1411240C94FF14E7
:102A30000E94DC1470F3959FC1F3950F50E0551F71
:102A4000629FF001729FBB27F00DB11D639FAA2703
:102A5000F00DB11DAA1F649F6627B00DA11D661F52
:102A6000829F2227B00DA11D621F739FB00DA11D73
:102A7000621F839FA00D611D221F749F3327A00D2D
:102A8000611D231F849F600D211D822F762F6A2FC9
:102A900011249F5750409AF0F1F088234AF0EE0F2E
:102AA000FF1FBB1F661F771F881F91505040A9F75B
:102AB0009E3F510580F00C94B4140C94FF145F3FBA
:102AC000E4F3983ED4F3869577956795B795F79597
:102AD000E7959F5FC1F7FE2B880F911D969587950F
:102AE00097F9089510E0C2E6D0E004C0FE010E940C
:0E2AF00092132196C336D107C9F7F894FFCF91
:102AFE00010300060001640B01030015000195CED1
:102B0E000103001E0001E40C01030020000185C03A
:102B1E000103001F0001B5CC000000006802C801CF
:102B2E00F501B5022602040218020000000053054A
:102B3E0026050D0AFC041F050C05FD04000000000F
:102B4E002A0900000000A909000000006A08000020
:102B5E000000C608000000000E0800000000B207CA
:102B6E00000000002409C8010D0A22098705AA05E4
:102B7E009705000000005607000000000C0B000037
:102B8E000000500B00000000F409000000004A0C89
:102B9E00000000008D00796573000D0A006E6F0055
:102BAE00456E64206F6620626174746572793A2096
:102BBE000048656174657220656E61626C65643A89
:102BCE00200044697361626C65204F545020726519
:0A2BDE006C6F61643A20002E0000C5
:00000001FF
